:100000000C9434000C9469000C943E000C943E0057
:100010000C943E000C943E000C943E000C943E0068
:100020000C943E000C943E000C943E000C943E0058
:100030000C943E000C943E000C943E000C943E0048
:100040000C943E000C943E000C943E000C943E0038
:100050000C943E000C943E000C943E000C943E0028
:100060000C943E000C943E0011241FBECFEFD8E04C
:10007000DEBFCDBF0E9440000C949A000C9400009B
:10008000789481E08DBB8093690080E78AB92FEF77
:1000900089E698E1215080409040E1F700C00000DF
:1000A00080E18BB92FEF89E698E1215080409040A4
:1000B000E1F700C0000080E28BB92FEF89E698E1FC
:1000C000215080409040E1F700C0000080E48BB9EF
:1000D000DECF1F920F920FB60F9211242F933F93F2
:1000E0004F938F939F9380E090E016C020E72BB949
:1000F0002FEF39E648E1215030404040E1F700C0A1
:1001000000001BB82FEF33ED40E32150304040405A
:10011000E1F700C000000196833091053CF3F894AC
:100120009F918F914F913F912F910F900FBE0F9004
:080130001F901895F894FFCF11
:00000001FF
